:1000000008308A0000280000C2346537F632EE342A
:10001000E4372110D0377210E630F63772106937A6
:100020006739E539651075372037F53665396F1052
:100030008A0600000C000C008A06A02A733A65327A
:10004000A031E136E2346F106536A032733A613286
:100050006F10E4323A10CC224410A53120050D0077
:100060008A068A060001CC302037F532F630203A75
:100070006131EC3020326510E539F430E43773102B
:10008000E5393A108A068A0600012010CC22441075
:10009000311DA01273108A0600002010CC224410DB
:1000A000321DA01273108A0600012010CC224410C9
:1000B000331DA01273108A0600012010CC224410B8
:1000C000341DA01273108A0600012010CC224410A7
:1000D000351DA01273108A0600018A068A060001E7
:1000E000D0377210E630F637721069376739E53964
:1000F000651075372037F53665396F108A060000B0
:100100007630840083130008031994280130F80026
:10011000F701F70B8928F80B88284A30F700F70B0E
:100120008F289228800B86280800831621189C2887
:10013000831286119E2883168312861583168611D4
:10014000A118A62883120612A82883168312061661
:10015000831606122119B02883120613B2288316BB
:100160008312061783160613A119BA288312861361
:10017000BC28831683128617831686130000831209
:10018000061583160611C42883120611831606115C
:10019000831208008316A201861500308312861987
:1001A00001308316A204061600308312061A0130AD
:1001B000F7000310F70D77088316A2040617003026
:1001C0008312061B0130F700F70DF70DFC30F70521
:1001D00077088316A204861700308312861B01302D
:1001E000F700F70DF70DF70DF830F70577088316D0
:1001F000A2042208F80083120800831606110610D4
:10020000861083120610831606108615061606172A
:100210008617831286148316861000008312061533
:100220008316061100008312CA2078088316A100E5
:100230008312061183160611000083120615831619
:10024000061100008312CA2078088316A0008312CA
:100250000611831606118611061206138613210E47
:10026000F700F030F70577082004F8007808A000C0
:10027000A01B0529FD08031D4129831206104329EF
:10028000831683120614831606100000831286104C
:1002900083168610000083120611831606117E0E47
:1002A000A0000F30A0052008A100831295207E0831
:1002B0000F398316A000A100831295200800283072
:1002C000F2000C30F3000130F4000630F5000611A6
:1002D00083160611831206108316061083128610E9
:1002E0008316861086110612061386130611061051
:1002F00086100F30F600831280200130F100710863
:10030000033C031C8D2903308316A1008312952022
:100310000530F6008020F10A7F2902308316A10003
:10032000831295200530F6008020F1017108033C0E
:10033000031CA62972307107840083130008F6009D
:10034000FD017608FE00FD20F10A96298A150A12A1
:100350008F28A91DC629F5012B30F400F3013F3089
:10036000F200740884008313751883170008F600E0
:10037000720884008313731883177608800080083E
:100380000319C529F20AF40AB129E029F50135302B
:10039000F400F3013F30F2007408840083137518F1
:1003A00083170008F60072088400831373188317FC
:1003B0007608800080080319E029F20AF40ACC29A3
:1003C0000800291DFE29F5012B30F400F301493006
:1003D000F200740884008313751883170008F60070
:1003E00072088400831373188317760880008008CE
:1003F0000319FD29F20AF40AE929182AF501353012
:10040000F400F3014930F200740884008313751876
:1004100083170008F600720884008313731883178B
:100420007608800080080319182AF20AF40A042AC0
:100430000800A91C362AF5012B30F400F3015330D3
:10044000F200740884008313751883170008F600FF
:10045000720884008313731883177608800080085D
:100460000319352AF20AF40A212A502AF5013530F7
:10047000F400F3015330F2007408840083137518FC
:1004800083170008F600720884008313731883171B
:100490007608800080080319502AF20AF40A3C2AE0
:1004A0000800291C6E2AF5012B30F400F3015D30A1
:1004B000F200740884008313751883170008F6008F
:1004C00072088400831373188317760880008008ED
:1004D00003196D2AF20AF40A592A882AF5013530DF
:1004E000F400F3015D30F200740884008313751882
:1004F00083170008F60072088400831373188317AB
:100500007608800080080319882AF20AF40A742AFF
:100510000800280BA62AF5012B30F400F301673000
:10052000F200740884008313751883170008F6001E
:10053000720884008313731883177608800080087C
:100540000319A52AF20AF40A912AC02AF5013530C6
:10055000F400F3016730F200740884008313751807
:1005600083170008F600720884008313731883173A
:100570007608800080080319C02AF20AF40AAC2A1F
:100580000800A919C52A0510C62A0514080029194A
:10059000CB2A8510CC2A85140800A918D12A051168
:1005A000D22A051508002918D72A8511D82A8515B9
:1005B0000800A808031DDE2A0911DF2A0915080012
:1005C0000B08F1008B13831603178C170C14000013
:1005D0000000F11FF02A831203138B1783160317F1
:1005E00083120C087F390319302BF1000D08F2003B
:1005F0000F08F300710803130C1EFC2A99007208FF
:1006000003178D0073088F0003130B08F4008B137E
:10061000831603178C170C1400000000F41F152B11
:10062000831203138B178316031783120C0D0E0D01
:100630007F390319302BF1000D08F2000F08F30089
:10064000710803130C1E222B9900720803178D00EA
:1006500073088F008D0A03198F0A0313E02A03170A
:1006600003130800760B352B382B4030FB00392B59
:10067000FB0101307502FB077B088038FC00FD019F
:100680007C08FE00FD2008007408073A0319522B6D
:100690000B3A0319572B063A03195F2B023A031939
:1006A000652B6A2B0130F500F60032236F2BFD011C
:1006B0000130FE00FD200230F60080206F2B01305B
:1006C000F5000230F60032236F2BFD011030FE00E2
:1006D000FD206F2B0130FD007408FE00FD20080096
:1006E0000B08F1008B13831603178C170C140000F2
:1006F0000000F11F802B831203138B17831603173F
:1007000083120C087F390319BE2BF1000D08F2008B
:100710000F08F3007108F400031344237208031751
:100720008D0073088F0003130B08F4008B138316DE
:1007300003178C170C1400000000F41FA42B831265
:1007400003138B178316031783120C0D0E0D7F39BD
:100750000319BE2BF1000D08F2000F08F300710819
:10076000F40003134423720803178D0073088F00ED
:100770008D0A03198F0A0313702B03170313080044
:1007800080080319D52BF2010408F1007210831BB5
:1007900072140008F4004423710884008313721853
:1007A0008317840A0319850AC02B08007108FB3ED1
:1007B0000318E32C053EE42CA919F62BA9150B0808
:1007C000F7008B1303178D0101308C0083168C13F7
:1007D0000C1555308D00AA308D008C148C18EE2B22
:1007E0000C117708831203138B040C2CA9110B082E
:1007F000F7008B1303178D018C0183168C130C15D6
:1008000055308D00AA308D008C148C18052C0C11DD
:100810007708831203138B04A921C122E32C291921
:10082000292C29150B08F7008B13013003178D00B5
:100830008C0083168C130C1555308D00AA308D005A
:100840008C148C18212C0C117708831203138B0441
:10085000402C29110B08F7008B13013003178D0072
:100860008C0183168C130C1555308D00AA308D0029
:100870008C148C18392C0C117708831203138B04F9
:10088000E121C722E32CA9185E2CA9140B08F7005C
:100890008B13023003178D0001308C0083168C13EC
:1008A0000C1555308D00AA308D008C148C18562CE8
:1008B0000C117708831203138B04752CA9100B08F5
:1008C000F7008B13023003178D008C0183168C13F5
:1008D0000C1555308D00AA308D008C148C186E2CA0
:1008E0000C117708831203138B041922CD22E32CF9
:1008F0002918932C29140B08F7008B1303300317C6
:100900008D0001308C0083168C130C1555308D0032
:10091000AA308D008C148C188B2C0C117708831244
:1009200003138B04AA2C29100B08F7008B13033038
:1009300003178D008C0183168C130C1555308D0018
:10094000AA308D008C148C18A32C0C1177088312FC
:1009500003138B045122D322E32CA808031DCA2CB5
:100960000130A8000B08F7008B13043003178D002B
:1009700001308C0083168C130C1555308D00AA3075
:100980008D008C148C18C22C0C1177088312031361
:100990008B04E12CA8010B08F7008B13043003171C
:1009A0008D008C0183168C130C1555308D00AA30E8
:1009B0008D008C148C18DA2C0C1177088312031319
:1009C0008B048922D92208000A108A100A1582078E
:1009D000DC2B0F2C432C782CAD2C0B08F3008B1345
:1009E000831603178C170C1400000000F31FFD2C56
:1009F000831203138B17831603170318252D8312F5
:100A00000C087F39F3000D08F4000F08F500730897
:100A100003130C1E092D9900740803178D00750827
:100A20008F0003130B08F6008B13831603178C1724
:100A30000C1400000000F61F222D831203138B17E5
:100A400083160317F20B252D422D83120C0D0E0D6C
:100A50007F39F3000D08F4000F08F5007308031345
:100A60000C1E302D9900740803178D0075088F0037
:100A70008D0A03198F0A0310F20B3F2D412D03132A
:100A8000ED2C8316831203130800800803195B2DD5
:100A9000F2010408F1007210831B721400080C1E8E
:100AA0004F2D990071088400831372188317840AEC
:080AB0000319850A452D080019
:1010000003081F398300193083169900A630980011
:10101000903083129800A6010530A7002910A9106E
:101020002911A91183161F149F141F159F11073032
:101030009C0083138312A001A1014530AB006E30E8
:10104000AC006330AD006530AE006E30AF00643090
:10105000B0006930B1006430B2006F30B300B40149
:101060004130B5007030B6006130B7006730B8006D
:101070006130B9006430BA006F30BB002030BC0072
:10108000BD00BE014130BF007030C0006130C10002
:101090006730C2006130C3006430C4006F30C500E7
:1010A000C6014130C9007030CA006130CB006730E2
:1010B000CC006130CD006430CE006F30CF00D00165
:1010C0004130D3007030D4006130D5006730D60095
:1010D0006130D7006430D8006F30D900DA01413078
:1010E000DD007030DE006130DF006730E00061302D
:1010F000E1006430E2006F30E300E4014130E700DA
:101100007030E8006130E9006730EA006130EB00E0
:101110006430EC006F30ED00EE018A115F298A1512
:101120007030831685008312850183160914891493
:101130000911831203178D0183168C130C1483126B
:101140000C08FF3C0319CC2801308D0083168C134A
:101150000C1483120C08FF3C0319CC2802308D00BC
:1011600083168C130C1483120C08FF3C0319CC2833
:1011700003308D0083168C130C1483120C08FF3C73
:101180000319CC2804308D0083168C130C148312A1
:101190000C08FF3C031D3B2903130B08F7008B13BE
:1011A00003178D018C0183168C130C1555308D009F
:1011B000AA308D008C148C18DB280C117708831250
:1011C00003138B040B08F7008B13013003178D00FA
:1011D0008C0183168C130C1555308D00AA308D00B0
:1011E0008C148C18F1280C117708831203138B04CC
:1011F0000B08F7008B13023003178D008C01831648
:101200008C130C1555308D00AA308D008C148C1861
:1012100007290C117708831203138B040B08F700BE
:101220008B13033003178D008C0183168C130C1560
:1012300055308D00AA308D008C148C181D290C118E
:101240007708831203138B040B08F7008B13043009
:1012500003178D008C0183168C130C1555308D00EF
:10126000AA308D008C148C1833290C117708831246
:1012700003138B0403178D0183168C130C14831234
:101280000C08F8000313A9117818A91501300317E9
:101290008D0083168C130C1483120C08F8000313B2
:1012A000291178182915023003178D0083168C1325
:1012B0000C1483120C08F8000313A9107818A91451
:1012C000033003178D0083168C130C1483120C0843
:1012D000F8000313291078182914043003178D001F
:1012E00083168C130C1483120C080313A8008A11A4
:1012F000A9218A158A11E1218A158A1119228A15D4
:101300008A1151228A158A1189228A158A11C122CD
:101310008A158A11C7228A158A11CD228A158A1147
:10132000D3228A158A11D9228A15043003178D0019
:1013300000308F008A110313E0228A15851AB32921
:10134000A60A0230F1009630F6008A1180208A1534
:10135000F10BA3291A3003178D0000308F008A117A
:10136000031370238A15051ACF29A608031DBC296B
:1013700001302702A600BD29A6030230F1009630F5
:10138000F6008A1180208A15F10BBF291B30031744
:101390008D0000308F008A11031370238A150130ED
:1013A000270226020319D6290318A6012608FB3EA8
:1013B00003188A2A053E822B0130F500F6008A11B7
:1013C00032238A155030F4008A1144238A153130B3
:1013D000F4008A1144238A153A30F4008A11442318
:1013E0008A150130F5000230F6008A1132238A1581
:1013F0003F30840083138A11C0238A158A2A013062
:10140000F500F6008A1132238A155030F4008A1153
:1014100044238A153230F4008A1144238A153A3065
:10142000F4008A1144238A150130F5000230F600D9
:101430008A1132238A154930840083138A11C0230C
:101440008A158A2A0130F500F6008A1132238A159E
:101450005030F4008A1144238A153330F4008A1185
:1014600044238A153A30F4008A1144238A15013046
:10147000F5000230F6008A1132238A1553308400B9
:1014800083138A11C0238A158A2A0130F500F600D9
:101490008A1132238A155030F4008A1144238A15A8
:1014A0003430F4008A1144238A153A30F4008A114A
:1014B00044238A150130F5000230F6008A113223E8
:1014C0008A155D30840083138A11C0238A158A2A05
:1014D0000130F500F6008A1132238A155030F400ED
:1014E0008A1144238A153530F4008A1144238A1561
:1014F0003A30F4008A1144238A150130F500023095
:10150000F6008A1132238A156730840083138A110A
:10151000C0238A158918962AC830F6008A118020BF
:101520008A152608F1008A11D6238A158C1E802B75
:101530008C1E982A1A08AA003130AA0227082A020B
:101540000318802B2A08F1008A11D6238A1531301E
:101550002A07F1001C3003178D0000308F000310A4
:101560002230F2008A110313ED248A1571080C1E33
:10157000B72A990020300C1EBB2A99000A300C1E95
:10158000BF2A99000D300C1EC32A99003030031772
:101590008D0000308F008A110313E0228A1533304A
:1015A00003178D0000308F008A110313E0228A1583
:1015B000453003178D0000308F0003100930F20012
:1015C0008A110313ED248A153F30840083138A1196
:1015D00045258A1520300C1EEB2A99000A300C1E76
:1015E000EF2A99000D300C1EF32A99004D30031795
:1015F0008D0000308F0003100930F2008A110313B0
:10160000ED248A154930840083138A1145258A15F3
:1016100020300C1E092B99000A300C1E0D2B99004E
:101620000D300C1E112B9900553003178D00003022
:101630008F0003100930F2008A110313ED248A157C
:101640005330840083138A1145258A1520300C1EDF
:10165000272B99000A300C1E2B2B99000D300C1EE5
:101660002F2B99005D3003178D0000308F00031081
:101670000930F2008A110313ED248A155D308400CD
:1016800083138A1145258A1520300C1E452B99009D
:101690000A300C1E492B99000D300C1E4D2B990061
:1016A000653003178D0000308F0003100930F20001
:1016B0008A110313ED248A156730840083138A117D
:1016C00045258A1520300C1E632B99000A300C1E0C
:1016D000672B99000D300C1E6B2B99006D30031792
:1016E0008D0000308F008A110313E0228A157030BC
:1016F00003178D0000308F008A110313E0228A1532
:101700009E2963000A148A140A118207DC29FF2922
:06171000222A452A682A86
:02400E00723FFF
:00000001FF
;PIC16F877A
;CRC=F432  CREATED="17-jun.-21 12:18"
