:1000000003308A00952B0000FF00030E8301A1003E
:100010000A08A0008A010408A2007708A300780853
:10002000A4007908A5007A08A60003170D08031399
:10003000A70003170F080313A80003170C080313E6
:10004000A90003170E080313AA00831383128C3030
:100050008400001C2D280C184E2822088400230838
:10006000F7002408F8002508F9002608FA002708F8
:1000700003178D000313280803178F0003132908A3
:1000800003178C0003132A0803178E00031320089C
:100090008A00210E8300FF0E7F0E09008A110A12CA
:1000A0007628F801F901F701FA015408031D5B28CD
:1000B0005308031975281030D5000310D10DD20D47
:1000C000F70DFA0D54087A02031D682853087702C9
:1000D000031C71285308F702031CFA035408FA02A0
:1000E0000314F80DF90DD50B5D280800340BB22868
:1000F00036083802031CB228031D8228370835024F
:100100000318B228B50A0319B60A3608D200350812
:10011000D1000130D4002C30D30051207708CF001B
:100120007A08D000CF08031D9B28D008031D9B2808
:10013000B20AB301B1283608D2003508D100013027
:10014000D4002C30D30051207708CF007A08D0009B
:10015000D2007708D100D4010530D30051207808AF
:10016000B300C228340BC22837083502031DC22849
:1001700038083602031DC228B601B501B4010514C2
:10018000851405158E013C308F00B0308E000C10A8
:100190008A110A122D280C000C00252675103A1819
:1001A000300045308400831300080319E52801302E
:1001B000F800F701F70BDA28F80BD9284A30F700D6
:1001C000F70BE028E328800BD72808004C18EA2812
:1001D0008611EB288615831686118312CC18F22817
:1001E0000612F32806168316061283124C19FA28F3
:1001F0000613FB280617831606138312CC1902294F
:1002000086130329861783168613000083120615AA
:10021000831606110B298312061183160611831209
:100220000800CD018316861500308312861901302F
:10023000CD048316061600308312061A0130F7002B
:100240000310F70D7708CD048316061700308312CC
:10025000061B0130F700F70DF70DFC30F7057708A6
:10026000CD048316861700308312861B0130F700F9
:10027000F70DF70DF70DF830F7057708CD044D08A9
:10028000F800080083160611061086108312061067
:10029000831606108615061606178617831286140F
:1002A00083168610000083120615831606110000BF
:1002B000831211217808CC00061183160611000064
:1002C0008312061583160611000083121121780887
:1002D000CB0006118316061186110612061386132B
:1002E00083124C0EF700F030F70577084B04F80046
:1002F0007808CB00CB1F7E2983164A29C908031D25
:100300008329061084290614831606100000831220
:1003100086108316861000008312061183160611BC
:1003200083124A0ECB000F30CB054B08CC00E620E1
:100330004A080F39CB00CC00E62008002830BC006A
:100340000C30BD000130BE000630BF000611831620
:100350000611831206108316061083128610831668
:1003600086108611061206138613061106108610D3
:100370000F308312C500D1200130BB003B08033C85
:10038000031CCA290330CC00E6200530C500D1206B
:10039000BB0ABE290230CC00E6200530C500D120C2
:1003A000BB013B08033C031CE1293C303B078400B4
:1003B00083130008C000C9014008CA004221BB0ADB
:1003C000D1298A110A12B52B1030C100F701FA01A8
:1003D000BE0CBD0C031CF2293F08F7070318FA0AEC
:1003E0004008FA07FA0CF70CF90CF80CC10BE829D5
:1003F0000800460BFC29FF294030C700002AC7012E
:1004000001304502C70747088038C800C9014808BD
:10041000CA00422108003E08F8013D020318132AD1
:100420003D08F7001F2AF7010830BF00BD0DF70D8A
:100430003E0877020318F700F80DBF0B162A0800D4
:100440004408073A03192E2A0B3A0319332A063AAD
:1004500003193B2A023A0319412A462A0130C500F2
:10046000C600F9214B2AC9010130CA0042210230DD
:10047000C500D1204B2A0130C5000230C600F92149
:100480004B2AC9011030CA0042214B2A0130C90051
:100490004408CA004221080078083B08BD006430C7
:1004A000BE000B227708BB0078083030031D5F2A9E
:1004B000BC1C662ABC19662A3C1A2030622ABC1170
:1004C0003C123C14F8077808C40020223B08BD0009
:1004D0000A30BE000B227708BB0078083030031DBD
:1004E000772ABC197B2A3C1C7B2A3C1A2030F8074F
:1004F0007808C40020223030BB073B08C40020220B
:1005000008000B08BB008B13831603178C170C1401
:100510000000000083120313BB1B8B1703170C088A
:100520007F390319D52A0313BB0003170D080313E2
:10053000BC0003170F080313BD003B08C4002022B2
:100540003C0803178D0003133D0803178F000313A6
:100550000B08BE008B13831603178C170C140000B6
:10056000000083120313BE1B8B1703170C0D0E0D17
:100570007F390319D52A0313BB0003170D08031392
:10058000BC0003170F080313BD003B08C400202262
:100590003C0803178D0003133D0803178F008D0AD5
:1005A00003198F0A0313812A031703130800C301D9
:1005B0000408C2004310831B43143C0EF038BE00F5
:1005C000BE07E23EBF00323EC1003C080F39BF0704
:1005D000BF07C107E93EC000C007C0073B0E0F3987
:1005E000C007C107C00DC10DC109C10D3B080F39BE
:1005F000C107BE0D0730BD000A30C107C003031C90
:10060000FD2AC007BF03031C012BBF07BE03031C49
:10061000052BBE07BD03031C092B3D30840083134B
:100620000730420542138407413004020319421780
:100630000008F700031D242B421B242B421A362BE3
:10064000C219242B2030272BC21542123030F70755
:10065000BC010408BB003C10831B3C147708C40099
:1006600020223B08840083133C188317840A421F0E
:10067000142B8A110A12802C0B08BC008B138316D2
:1006800003178C170C140000000083120313BC1B0B
:100690008B170318732B03170C087F390313BC0047
:1006A00003170D080313BD0003170F080313BE0043
:1006B0003C08C40020223D0803178D0003133E08A8
:1006C00003178F0003130B08BF008B138316031748
:1006D0008C170C140000000083120313BF1B8B1730
:1006E000BB0B732B922B03170C0D0E0D7F390313CD
:1006F000BC0003170D080313BD0003170F080313F5
:10070000BE003C08C40020223D0803178D000313DF
:100710003E0803178F008D0A03198F0A0310031375
:10072000BB0B3C2B8A110A128A2C03081F39830049
:10073000193083169900A6309800903083129800E3
:10074000B201B301B401B601B501B801B701BA01F4
:10075000B90183161F149F141F159F1107309C00A9
:1007600083138312AB01AC019E2978308316850078
:100770008312850183160914891409110C14A530FC
:10078000831290008E013C308F00B0308E00C0305C
:100790008B0403178D0183168C130C1483120C0821
:1007A000FF3C031DEB2B03130B08F7008B13031700
:1007B0008D0101308C0083168C130C1555308D0083
:1007C000AA308D008C148C18E32B0C11770883123F
:1007D00003138B04031703138918F02B3110F12B2B
:1007E000311403178D0183168C130C1483120C081B
:1007F0000313BA01B9003A08BE003908BD00C001B0
:100800003C30BF00E4217908BC007808BB007908BF
:10081000BE007808BD00C0010530BF00E4217908A2
:10082000B8007808B700311C392C8519212CB40880
:10083000031D212CB201B3010130B4000510851055
:1008400005110130C500C600F9213208BB00013096
:10085000BC004C222030C40020223A30C4002022A8
:100860002030C40020223308BB000130BC004C22E1
:10087000132C3118A82C851A4E2CB90A0319BA0A60
:100880000230BB009630C500D120BB0B422CCB30D0
:1008900003178D0000308F0003138122051A6C2C82
:1008A000B908031D5A2CBA08031D5A2CBA0163302B
:1008B000B9005E2C39080319BA03B9030230BB0032
:1008C0009630C500D120BB0B602CCC3003178D00B7
:1008D00000308F0003138122BA08031D732C3908DE
:1008E000633C0318752CBA01B9010130C500C6007C
:1008F000F921103084003A08BC003908BB00D72A1F
:10090000CE3003178D0000308F0003140430031322
:10091000BB003C2B8918A72CC830C500D1200B0880
:10092000F7008B1303178D010313390803178C008D
:1009300083168C130C1555308D00AA308D008C1445
:100940008C18A02C0C117708831203138B04392CFC
:02095000630042
:02400E00723FFF
:00000001FF
;PIC16F877A
;CRC=313D  CREATED="23-jun.-21 11:43"
